{
  "address": "0xe7f1725E7734CE288F8367e1Bb143E90bb3F0512",
  "abi": [
    {
      "inputs": [
        {
          "internalType": "address",
          "name": "priceFeedAddress",
          "type": "address"
        }
      ],
      "stateMutability": "nonpayable",
      "type": "constructor"
    },
    {
      "inputs": [],
      "name": "NotOwner",
      "type": "error"
    },
    {
      "stateMutability": "payable",
      "type": "fallback"
    },
    {
      "inputs": [],
      "name": "MINIMUM_USD",
      "outputs": [
        {
          "internalType": "uint256",
          "name": "",
          "type": "uint256"
        }
      ],
      "stateMutability": "view",
      "type": "function"
    },
    {
      "inputs": [
        {
          "internalType": "address",
          "name": "",
          "type": "address"
        }
      ],
      "name": "addressToAmountFunded",
      "outputs": [
        {
          "internalType": "uint256",
          "name": "",
          "type": "uint256"
        }
      ],
      "stateMutability": "view",
      "type": "function"
    },
    {
      "inputs": [],
      "name": "fund",
      "outputs": [],
      "stateMutability": "payable",
      "type": "function"
    },
    {
      "inputs": [
        {
          "internalType": "uint256",
          "name": "",
          "type": "uint256"
        }
      ],
      "name": "funders",
      "outputs": [
        {
          "internalType": "address",
          "name": "",
          "type": "address"
        }
      ],
      "stateMutability": "view",
      "type": "function"
    },
    {
      "inputs": [],
      "name": "owner",
      "outputs": [
        {
          "internalType": "address",
          "name": "",
          "type": "address"
        }
      ],
      "stateMutability": "view",
      "type": "function"
    },
    {
      "inputs": [],
      "name": "withdraw",
      "outputs": [],
      "stateMutability": "nonpayable",
      "type": "function"
    },
    {
      "stateMutability": "payable",
      "type": "receive"
    }
  ],
  "transactionHash": "0x44d4e37e796466cc989f5c8185a416fd36f1d38b6480a0b4cee65176006786ba",
  "args": [
    "0x5FbDB2315678afecb367f032d93F642f64180aa3"
  ],
  "numDeployments": 1,
  "solcInputHash": "68c0b3904bcad07e6bfec5983e8dacad",
  "bytecode": "0x60a060405234801561001057600080fd5b5060405162000fe038038062000fe083398181016040528101906100349190610112565b3373ffffffffffffffffffffffffffffffffffffffff1660808173ffffffffffffffffffffffffffffffffffffffff168152505080600260006101000a81548173ffffffffffffffffffffffffffffffffffffffff021916908373ffffffffffffffffffffffffffffffffffffffff1602179055505061013f565b600080fd5b600073ffffffffffffffffffffffffffffffffffffffff82169050919050565b60006100df826100b4565b9050919050565b6100ef816100d4565b81146100fa57600080fd5b50565b60008151905061010c816100e6565b92915050565b600060208284031215610128576101276100af565b5b6000610136848285016100fd565b91505092915050565b608051610e7e620001626000396000818161029f01526104f80152610e7e6000f3fe6080604052600436106100595760003560e01c80633ccfd60b146100725780633e47d6f3146100895780636b69a592146100c65780638da5cb5b146100f1578063b60d42881461011c578063dc0d3dff1461012657610068565b3661006857610066610163565b005b610070610163565b005b34801561007e57600080fd5b5061008761029d565b005b34801561009557600080fd5b506100b060048036038101906100ab91906107b1565b6104d1565b6040516100bd91906107f7565b60405180910390f35b3480156100d257600080fd5b506100db6104e9565b6040516100e891906107f7565b60405180910390f35b3480156100fd57600080fd5b506101066104f6565b6040516101139190610821565b60405180910390f35b610124610163565b005b34801561013257600080fd5b5061014d60048036038101906101489190610868565b61051a565b60405161015a9190610821565b60405180910390f35b6802b5e3af16b18800006101a2600260009054906101000a900473ffffffffffffffffffffffffffffffffffffffff163461055990919063ffffffff16565b10156101e3576040517f08c379a00000000000000000000000000000000000000000000000000000000081526004016101da906108f2565b60405180910390fd5b6001339080600181540180825580915050600190039060005260206000200160009091909190916101000a81548173ffffffffffffffffffffffffffffffffffffffff021916908373ffffffffffffffffffffffffffffffffffffffff160217905550346000803373ffffffffffffffffffffffffffffffffffffffff1673ffffffffffffffffffffffffffffffffffffffff16815260200190815260200160002060008282546102949190610941565b92505081905550565b7f000000000000000000000000000000000000000000000000000000000000000073ffffffffffffffffffffffffffffffffffffffff163373ffffffffffffffffffffffffffffffffffffffff1614610322576040517f30cd747100000000000000000000000000000000000000000000000000000000815260040160405180910390fd5b60005b6001805490508110156103c15760008060006001848154811061034b5761034a610975565b5b9060005260206000200160009054906101000a900473ffffffffffffffffffffffffffffffffffffffff1673ffffffffffffffffffffffffffffffffffffffff1673ffffffffffffffffffffffffffffffffffffffff168152602001908152602001600020819055508080600101915050610325565b50600067ffffffffffffffff8111156103dd576103dc6109a4565b5b60405190808252806020026020018201604052801561040b5781602001602082028036833780820191505090505b50600190805190602001906104219291906106a7565b5060003373ffffffffffffffffffffffffffffffffffffffff164760405161044890610a04565b60006040518083038185875af1925050503d8060008114610485576040519150601f19603f3d011682016040523d82523d6000602084013e61048a565b606091505b50509050806104ce576040517f08c379a00000000000000000000000000000000000000000000000000000000081526004016104c590610a65565b60405180910390fd5b50565b60006020528060005260406000206000915090505481565b6802b5e3af16b188000081565b7f000000000000000000000000000000000000000000000000000000000000000081565b6001818154811061052a57600080fd5b906000526020600020016000915054906101000a900473ffffffffffffffffffffffffffffffffffffffff1681565b6000806105658361058f565b9050670de0b6b3a7640000818561057c9190610a85565b6105869190610af6565b91505092915050565b6000808273ffffffffffffffffffffffffffffffffffffffff1663313ce5676040518163ffffffff1660e01b8152600401602060405180830381865afa1580156105dd573d6000803e3d6000fd5b505050506040513d601f19601f820116820180604052508101906106019190610b60565b905060008373ffffffffffffffffffffffffffffffffffffffff1663feaf968c6040518163ffffffff1660e01b815260040160a060405180830381865afa158015610650573d6000803e3d6000fd5b505050506040513d601f19601f820116820180604052508101906106749190610c1a565b5050509150508160126106879190610c95565b600a6106939190610dfd565b8161069e9190610a85565b92505050919050565b828054828255906000526020600020908101928215610720579160200282015b8281111561071f5782518260006101000a81548173ffffffffffffffffffffffffffffffffffffffff021916908373ffffffffffffffffffffffffffffffffffffffff160217905550916020019190600101906106c7565b5b50905061072d9190610731565b5090565b5b8082111561074a576000816000905550600101610732565b5090565b600080fd5b600073ffffffffffffffffffffffffffffffffffffffff82169050919050565b600061077e82610753565b9050919050565b61078e81610773565b811461079957600080fd5b50565b6000813590506107ab81610785565b92915050565b6000602082840312156107c7576107c661074e565b5b60006107d58482850161079c565b91505092915050565b6000819050919050565b6107f1816107de565b82525050565b600060208201905061080c60008301846107e8565b92915050565b61081b81610773565b82525050565b60006020820190506108366000830184610812565b92915050565b610845816107de565b811461085057600080fd5b50565b6000813590506108628161083c565b92915050565b60006020828403121561087e5761087d61074e565b5b600061088c84828501610853565b91505092915050565b600082825260208201905092915050565b7f596f75206e65656420746f2073656e64206d6f72652045544821000000000000600082015250565b60006108dc601a83610895565b91506108e7826108a6565b602082019050919050565b6000602082019050818103600083015261090b816108cf565b9050919050565b7f4e487b7100000000000000000000000000000000000000000000000000000000600052601160045260246000fd5b600061094c826107de565b9150610957836107de565b925082820190508082111561096f5761096e610912565b5b92915050565b7f4e487b7100000000000000000000000000000000000000000000000000000000600052603260045260246000fd5b7f4e487b7100000000000000000000000000000000000000000000000000000000600052604160045260246000fd5b600081905092915050565b50565b60006109ee6000836109d3565b91506109f9826109de565b600082019050919050565b6000610a0f826109e1565b9150819050919050565b7f5769746864726177204661696c65642121000000000000000000000000000000600082015250565b6000610a4f601183610895565b9150610a5a82610a19565b602082019050919050565b60006020820190508181036000830152610a7e81610a42565b9050919050565b6000610a90826107de565b9150610a9b836107de565b9250828202610aa9816107de565b91508282048414831517610ac057610abf610912565b5b5092915050565b7f4e487b7100000000000000000000000000000000000000000000000000000000600052601260045260246000fd5b6000610b01826107de565b9150610b0c836107de565b925082610b1c57610b1b610ac7565b5b828204905092915050565b600060ff82169050919050565b610b3d81610b27565b8114610b4857600080fd5b50565b600081519050610b5a81610b34565b92915050565b600060208284031215610b7657610b7561074e565b5b6000610b8484828501610b4b565b91505092915050565b600069ffffffffffffffffffff82169050919050565b610bac81610b8d565b8114610bb757600080fd5b50565b600081519050610bc981610ba3565b92915050565b6000819050919050565b610be281610bcf565b8114610bed57600080fd5b50565b600081519050610bff81610bd9565b92915050565b600081519050610c148161083c565b92915050565b600080600080600060a08688031215610c3657610c3561074e565b5b6000610c4488828901610bba565b9550506020610c5588828901610bf0565b9450506040610c6688828901610c05565b9350506060610c7788828901610c05565b9250506080610c8888828901610bba565b9150509295509295909350565b6000610ca082610b27565b9150610cab83610b27565b9250828203905060ff811115610cc457610cc3610912565b5b92915050565b60008160011c9050919050565b6000808291508390505b6001851115610d2157808604811115610cfd57610cfc610912565b5b6001851615610d0c5780820291505b8081029050610d1a85610cca565b9450610ce1565b94509492505050565b600082610d3a5760019050610df6565b81610d485760009050610df6565b8160018114610d5e5760028114610d6857610d97565b6001915050610df6565b60ff841115610d7a57610d79610912565b5b8360020a915084821115610d9157610d90610912565b5b50610df6565b5060208310610133831016604e8410600b8410161715610dcc5782820a905083811115610dc757610dc6610912565b5b610df6565b610dd98484846001610cd7565b92509050818404811115610df057610def610912565b5b81810290505b9392505050565b6000610e08826107de565b9150610e1383610b27565b9250610e407fffffffffffffffffffffffffffffffffffffffffffffffffffffffffffffffff8484610d2a565b90509291505056fea264697066735822122040620cd4dd6011f63e72100e2835c31107c48e716e635d93fd3eb34ddca29ae764736f6c63430008180033",
  "devdoc": {
    "kind": "dev",
    "methods": {},
    "version": 1
  },
  "userdoc": {
    "kind": "user",
    "methods": {},
    "version": 1
  },
  "storageLayout": {
    "storage": [
      {
        "astId": 59,
        "contract": "contracts/Fundme.sol:Fundme",
        "label": "addressToAmountFunded",
        "offset": 0,
        "slot": "0",
        "type": "t_mapping(t_address,t_uint256)"
      },
      {
        "astId": 62,
        "contract": "contracts/Fundme.sol:Fundme",
        "label": "funders",
        "offset": 0,
        "slot": "1",
        "type": "t_array(t_address)dyn_storage"
      },
      {
        "astId": 72,
        "contract": "contracts/Fundme.sol:Fundme",
        "label": "s_priceFeed",
        "offset": 0,
        "slot": "2",
        "type": "t_contract(AggregatorV3Interface)45"
      }
    ],
    "types": {
      "t_address": {
        "encoding": "inplace",
        "label": "address",
        "numberOfBytes": "20"
      },
      "t_array(t_address)dyn_storage": {
        "base": "t_address",
        "encoding": "dynamic_array",
        "label": "address[]",
        "numberOfBytes": "32"
      },
      "t_contract(AggregatorV3Interface)45": {
        "encoding": "inplace",
        "label": "contract AggregatorV3Interface",
        "numberOfBytes": "20"
      },
      "t_mapping(t_address,t_uint256)": {
        "encoding": "mapping",
        "key": "t_address",
        "label": "mapping(address => uint256)",
        "numberOfBytes": "32",
        "value": "t_uint256"
      },
      "t_uint256": {
        "encoding": "inplace",
        "label": "uint256",
        "numberOfBytes": "32"
      }
    }
  }
}