{
  "address": "0x3E73b8CFB312f2D115a1338cCE1b053Ea16Cf0c4",
  "abi": [
    {
      "inputs": [
        {
          "internalType": "address",
          "name": "priceFeedAddress",
          "type": "address"
        }
      ],
      "stateMutability": "nonpayable",
      "type": "constructor"
    },
    {
      "inputs": [],
      "name": "NotOwner",
      "type": "error"
    },
    {
      "stateMutability": "payable",
      "type": "fallback"
    },
    {
      "inputs": [],
      "name": "MINIMUM_USD",
      "outputs": [
        {
          "internalType": "uint256",
          "name": "",
          "type": "uint256"
        }
      ],
      "stateMutability": "view",
      "type": "function"
    },
    {
      "inputs": [],
      "name": "fund",
      "outputs": [],
      "stateMutability": "payable",
      "type": "function"
    },
    {
      "inputs": [
        {
          "internalType": "address",
          "name": "funder",
          "type": "address"
        }
      ],
      "name": "getAddressToAmountFunded",
      "outputs": [
        {
          "internalType": "uint256",
          "name": "",
          "type": "uint256"
        }
      ],
      "stateMutability": "view",
      "type": "function"
    },
    {
      "inputs": [
        {
          "internalType": "uint256",
          "name": "index",
          "type": "uint256"
        }
      ],
      "name": "getFunder",
      "outputs": [
        {
          "internalType": "address",
          "name": "",
          "type": "address"
        }
      ],
      "stateMutability": "view",
      "type": "function"
    },
    {
      "inputs": [],
      "name": "getOwner",
      "outputs": [
        {
          "internalType": "address",
          "name": "",
          "type": "address"
        }
      ],
      "stateMutability": "view",
      "type": "function"
    },
    {
      "inputs": [],
      "name": "getPriceFeed",
      "outputs": [
        {
          "internalType": "contract AggregatorV3Interface",
          "name": "",
          "type": "address"
        }
      ],
      "stateMutability": "view",
      "type": "function"
    },
    {
      "inputs": [],
      "name": "withdraw",
      "outputs": [],
      "stateMutability": "nonpayable",
      "type": "function"
    },
    {
      "stateMutability": "payable",
      "type": "receive"
    }
  ],
  "transactionHash": "0x3406df21b7482e4443beb921e10042fc11034a4e6b455450ed53da49f9085288",
  "args": [
    "0x694AA1769357215DE4FAC081bf1f309aDC325306"
  ],
  "numDeployments": 2,
  "solcInputHash": "c05f3732bdc4ae8e852ebba759cc0ba0",
  "bytecode": "0x60a06040523480156200001157600080fd5b50604051620011173803806200111783398181016040528101906200003791906200011d565b3373ffffffffffffffffffffffffffffffffffffffff1660808173ffffffffffffffffffffffffffffffffffffffff168152505080600260006101000a81548173ffffffffffffffffffffffffffffffffffffffff021916908373ffffffffffffffffffffffffffffffffffffffff160217905550506200014f565b600080fd5b600073ffffffffffffffffffffffffffffffffffffffff82169050919050565b6000620000e582620000b8565b9050919050565b620000f781620000d8565b81146200010357600080fd5b50565b6000815190506200011781620000ec565b92915050565b600060208284031215620001365762000135620000b3565b5b6000620001468482850162000106565b91505092915050565b608051610fa5620001726000396000818161032d01526105700152610fa56000f3fe6080604052600436106100745760003560e01c8063893d20e81161004e578063893d20e81461010c5780639e87a5cd14610137578063b60d428814610162578063d7b4750c1461016c57610083565b80630343fb251461008d5780633ccfd60b146100ca5780636b69a592146100e157610083565b36610083576100816101a9565b005b61008b6101a9565b005b34801561009957600080fd5b506100b460048036038101906100af919061085e565b6102e3565b6040516100c191906108a4565b60405180910390f35b3480156100d657600080fd5b506100df61032b565b005b3480156100ed57600080fd5b506100f661055f565b60405161010391906108a4565b60405180910390f35b34801561011857600080fd5b5061012161056c565b60405161012e91906108ce565b60405180910390f35b34801561014357600080fd5b5061014c610594565b6040516101599190610948565b60405180910390f35b61016a6101a9565b005b34801561017857600080fd5b50610193600480360381019061018e919061098f565b6105be565b6040516101a091906108ce565b60405180910390f35b6802b5e3af16b18800006101e8600260009054906101000a900473ffffffffffffffffffffffffffffffffffffffff163461060690919063ffffffff16565b1015610229576040517f08c379a000000000000000000000000000000000000000000000000000000000815260040161022090610a19565b60405180910390fd5b6001339080600181540180825580915050600190039060005260206000200160009091909190916101000a81548173ffffffffffffffffffffffffffffffffffffffff021916908373ffffffffffffffffffffffffffffffffffffffff160217905550346000803373ffffffffffffffffffffffffffffffffffffffff1673ffffffffffffffffffffffffffffffffffffffff16815260200190815260200160002060008282546102da9190610a68565b92505081905550565b60008060008373ffffffffffffffffffffffffffffffffffffffff1673ffffffffffffffffffffffffffffffffffffffff168152602001908152602001600020549050919050565b7f000000000000000000000000000000000000000000000000000000000000000073ffffffffffffffffffffffffffffffffffffffff163373ffffffffffffffffffffffffffffffffffffffff16146103b0576040517f30cd747100000000000000000000000000000000000000000000000000000000815260040160405180910390fd5b60005b60018054905081101561044f576000806000600184815481106103d9576103d8610a9c565b5b9060005260206000200160009054906101000a900473ffffffffffffffffffffffffffffffffffffffff1673ffffffffffffffffffffffffffffffffffffffff1673ffffffffffffffffffffffffffffffffffffffff1681526020019081526020016000208190555080806001019150506103b3565b50600067ffffffffffffffff81111561046b5761046a610acb565b5b6040519080825280602002602001820160405280156104995781602001602082028036833780820191505090505b50600190805190602001906104af929190610754565b5060003373ffffffffffffffffffffffffffffffffffffffff16476040516104d690610b2b565b60006040518083038185875af1925050503d8060008114610513576040519150601f19603f3d011682016040523d82523d6000602084013e610518565b606091505b505090508061055c576040517f08c379a000000000000000000000000000000000000000000000000000000000815260040161055390610b8c565b60405180910390fd5b50565b6802b5e3af16b188000081565b60007f0000000000000000000000000000000000000000000000000000000000000000905090565b6000600260009054906101000a900473ffffffffffffffffffffffffffffffffffffffff16905090565b6000600182815481106105d4576105d3610a9c565b5b9060005260206000200160009054906101000a900473ffffffffffffffffffffffffffffffffffffffff169050919050565b6000806106128361063c565b9050670de0b6b3a764000081856106299190610bac565b6106339190610c1d565b91505092915050565b6000808273ffffffffffffffffffffffffffffffffffffffff1663313ce5676040518163ffffffff1660e01b8152600401602060405180830381865afa15801561068a573d6000803e3d6000fd5b505050506040513d601f19601f820116820180604052508101906106ae9190610c87565b905060008373ffffffffffffffffffffffffffffffffffffffff1663feaf968c6040518163ffffffff1660e01b815260040160a060405180830381865afa1580156106fd573d6000803e3d6000fd5b505050506040513d601f19601f820116820180604052508101906107219190610d41565b5050509150508160126107349190610dbc565b600a6107409190610f24565b8161074b9190610bac565b92505050919050565b8280548282559060005260206000209081019282156107cd579160200282015b828111156107cc5782518260006101000a81548173ffffffffffffffffffffffffffffffffffffffff021916908373ffffffffffffffffffffffffffffffffffffffff16021790555091602001919060010190610774565b5b5090506107da91906107de565b5090565b5b808211156107f75760008160009055506001016107df565b5090565b600080fd5b600073ffffffffffffffffffffffffffffffffffffffff82169050919050565b600061082b82610800565b9050919050565b61083b81610820565b811461084657600080fd5b50565b60008135905061085881610832565b92915050565b600060208284031215610874576108736107fb565b5b600061088284828501610849565b91505092915050565b6000819050919050565b61089e8161088b565b82525050565b60006020820190506108b96000830184610895565b92915050565b6108c881610820565b82525050565b60006020820190506108e360008301846108bf565b92915050565b6000819050919050565b600061090e61090961090484610800565b6108e9565b610800565b9050919050565b6000610920826108f3565b9050919050565b600061093282610915565b9050919050565b61094281610927565b82525050565b600060208201905061095d6000830184610939565b92915050565b61096c8161088b565b811461097757600080fd5b50565b60008135905061098981610963565b92915050565b6000602082840312156109a5576109a46107fb565b5b60006109b38482850161097a565b91505092915050565b600082825260208201905092915050565b7f596f75206e65656420746f2073656e64206d6f72652045544821000000000000600082015250565b6000610a03601a836109bc565b9150610a0e826109cd565b602082019050919050565b60006020820190508181036000830152610a32816109f6565b9050919050565b7f4e487b7100000000000000000000000000000000000000000000000000000000600052601160045260246000fd5b6000610a738261088b565b9150610a7e8361088b565b9250828201905080821115610a9657610a95610a39565b5b92915050565b7f4e487b7100000000000000000000000000000000000000000000000000000000600052603260045260246000fd5b7f4e487b7100000000000000000000000000000000000000000000000000000000600052604160045260246000fd5b600081905092915050565b50565b6000610b15600083610afa565b9150610b2082610b05565b600082019050919050565b6000610b3682610b08565b9150819050919050565b7f5769746864726177204661696c65642121000000000000000000000000000000600082015250565b6000610b766011836109bc565b9150610b8182610b40565b602082019050919050565b60006020820190508181036000830152610ba581610b69565b9050919050565b6000610bb78261088b565b9150610bc28361088b565b9250828202610bd08161088b565b91508282048414831517610be757610be6610a39565b5b5092915050565b7f4e487b7100000000000000000000000000000000000000000000000000000000600052601260045260246000fd5b6000610c288261088b565b9150610c338361088b565b925082610c4357610c42610bee565b5b828204905092915050565b600060ff82169050919050565b610c6481610c4e565b8114610c6f57600080fd5b50565b600081519050610c8181610c5b565b92915050565b600060208284031215610c9d57610c9c6107fb565b5b6000610cab84828501610c72565b91505092915050565b600069ffffffffffffffffffff82169050919050565b610cd381610cb4565b8114610cde57600080fd5b50565b600081519050610cf081610cca565b92915050565b6000819050919050565b610d0981610cf6565b8114610d1457600080fd5b50565b600081519050610d2681610d00565b92915050565b600081519050610d3b81610963565b92915050565b600080600080600060a08688031215610d5d57610d5c6107fb565b5b6000610d6b88828901610ce1565b9550506020610d7c88828901610d17565b9450506040610d8d88828901610d2c565b9350506060610d9e88828901610d2c565b9250506080610daf88828901610ce1565b9150509295509295909350565b6000610dc782610c4e565b9150610dd283610c4e565b9250828203905060ff811115610deb57610dea610a39565b5b92915050565b60008160011c9050919050565b6000808291508390505b6001851115610e4857808604811115610e2457610e23610a39565b5b6001851615610e335780820291505b8081029050610e4185610df1565b9450610e08565b94509492505050565b600082610e615760019050610f1d565b81610e6f5760009050610f1d565b8160018114610e855760028114610e8f57610ebe565b6001915050610f1d565b60ff841115610ea157610ea0610a39565b5b8360020a915084821115610eb857610eb7610a39565b5b50610f1d565b5060208310610133831016604e8410600b8410161715610ef35782820a905083811115610eee57610eed610a39565b5b610f1d565b610f008484846001610dfe565b92509050818404811115610f1757610f16610a39565b5b81810290505b9392505050565b6000610f2f8261088b565b9150610f3a83610c4e565b9250610f677fffffffffffffffffffffffffffffffffffffffffffffffffffffffffffffffff8484610e51565b90509291505056fea26469706673582212202c2f6ba345791978ff0d3eb4bd5faee87fa95ef1ee27fef0d03201684979cfac64736f6c63430008180033",
  "devdoc": {
    "kind": "dev",
    "methods": {},
    "version": 1
  },
  "userdoc": {
    "kind": "user",
    "methods": {},
    "version": 1
  },
  "storageLayout": {
    "storage": [
      {
        "astId": 59,
        "contract": "contracts/Fundme.sol:Fundme",
        "label": "addressToAmountFunded",
        "offset": 0,
        "slot": "0",
        "type": "t_mapping(t_address,t_uint256)"
      },
      {
        "astId": 62,
        "contract": "contracts/Fundme.sol:Fundme",
        "label": "funders",
        "offset": 0,
        "slot": "1",
        "type": "t_array(t_address)dyn_storage"
      },
      {
        "astId": 72,
        "contract": "contracts/Fundme.sol:Fundme",
        "label": "s_priceFeed",
        "offset": 0,
        "slot": "2",
        "type": "t_contract(AggregatorV3Interface)45"
      }
    ],
    "types": {
      "t_address": {
        "encoding": "inplace",
        "label": "address",
        "numberOfBytes": "20"
      },
      "t_array(t_address)dyn_storage": {
        "base": "t_address",
        "encoding": "dynamic_array",
        "label": "address[]",
        "numberOfBytes": "32"
      },
      "t_contract(AggregatorV3Interface)45": {
        "encoding": "inplace",
        "label": "contract AggregatorV3Interface",
        "numberOfBytes": "20"
      },
      "t_mapping(t_address,t_uint256)": {
        "encoding": "mapping",
        "key": "t_address",
        "label": "mapping(address => uint256)",
        "numberOfBytes": "32",
        "value": "t_uint256"
      },
      "t_uint256": {
        "encoding": "inplace",
        "label": "uint256",
        "numberOfBytes": "32"
      }
    }
  }
}